:100000000C94BE000C94D0000C94D0000C94D00042
:100010000C94D0000C94D0000C94D0000C94D00020
:100020000C94D0000C94D0000C94D0000C94D00010
:100030000C94D0000C94B5030C94D0000C94D00018
:100040000C94D0000C94D0000C94D0000C94D000F0
:100050000C94D000303132333435363738394142A0
:100060004344454649636F6E207465737420286964
:10007000636F6E2B2B292E2E2E0D0A004F6E652DD1
:10008000706978656C2066696C6C20746573742087
:1000900028657665727920706978656C2077686F5D
:1000A0006C65206275666665722069732073656E83
:1000B0007420746F20646973706C6179292E2E2E00
:1000C0000D0A00436C65616E696E67206275666635
:1000D0006572732E2E2E0D0A000D0A446973706C22
:1000E000617920696E69742E2E2E0D0A005072659A
:1000F0002D696E69742064656C61792028666F7261
:100100002066756E203A292029002A2A2A2A2A2ABE
:100110002A2A2A2A205646442037307834387078E4
:1001200020772F6820726564206C696E65202B2013
:1001300031372069636F6E73202A2A2A2A2A2A2AD5
:100140002A2A2A0D0A000D0A0D0A2A2A2A2A2A2AF0
:100150002A2A2A2A20464D37304758343841412030
:100160002A2A2A2A2A2A2A2A2A2A0D0A003C3C3C20
:1001700052532D464C5553483E3E3E0011241FBE5F
:10018000CFE5D8E0DEBFCDBF22E0A0E6B0E001C001
:100190001D92AF31B207E1F70E9445030C94EF03C3
:1001A0000C940000009779F00000000000000000AF
:1001B000000000000000000000000000000000003F
:1001C0000000019789F70895CF93DF93EC01892B05
:1001D00031F083EE93E00E94D2002197D1F7DF91B6
:1001E000CF91089585BB82B38F7382BB82B3929502
:1001F000990F990F907C892B82BB0895839B03C034
:1002000000008399FDCF000000008BBB00000000C0
:100210000000000092980000000000000000929A88
:100220000895882311F0C19A0895C1980895E2E6CF
:10023000F0E086E092E01192E817F907E1F71092FA
:100240000602109261008FEF85BB84BB92B3906C65
:1002500092BB91B3906C91BB8BBB8ABB929A8A9AEA
:100260008B98939A949A8C9AC198B99AC298BA9A90
:10027000C398BB9A84E690E00E94E40094988AE0D8
:1002800090E00E94E400949A839B03C0000083994D
:10029000FDCF81E00E9411010895982F977F9093E0
:1002A000610080FF02C0C29A01C0C29880916100C3
:1002B00081FF02C0C39A01C0C3988091610082FF90
:1002C00008C086EC92E00E94F20081E00E94FE00ED
:1002D00007C086EC92E00E94F20080E00E94FE00DF
:1002E00086EC90E00E94F2008091610082958F7010
:1002F0000E94FE000895CF93C82F86E490E00E94EC
:10030000F2008C2F0E94FE00CF910895603308F018
:100310006FE2982F863408F095E4862F86958695AF
:10032000869556E4859F90011124F901E90FF11D8E
:10033000CF016770EE59FF4F208141110AC041E0A3
:1003400050E002C0440F551F6A95E2F74095242300
:100350002AC0413049F441E050E002C0440F551F2B
:100360006A95E2F7242B1FC04230E9F4422F50E097
:10037000062E02C0559547950A94E2F740FF0AC041
:1003800041E050E002C0440F551F6A95E2F74095E6
:10039000242309C041E050E002C0440F551F6A9574
:1003A000E2F740952423FC01EE59FF4F2083089586
:1003B00094980000000000000000949A00000000E3
:1003C00000000000839B03C000008399FDCF0895C7
:1003D000E2E6F0E026E032E08193E217F307E1F78E
:1003E00081110FC094980000000000000000949A52
:1003F0000000000000000000839B03C00000839900
:10040000FDCF08958F929F92AF92BF92CF92DF92CD
:10041000EF92FF920F931F93CF93DF930F2EF2E68D
:10042000AF2EF0E0BF2EF02D0F2EF6E08F2EF2E073
:100430009F2EF02DE501C12CD12C12C0C7018C0FCD
:100440009D1F0E94F20089910E94FE00C017D107F3
:10045000A9F78AE3C80ED11CE8010815190539F07F
:100460008E010A5B1F4F7601EA18FB08E7CFDF9188
:10047000CF911F910F91FF90EF90DF90CF90BF90A1
:10048000AF909F908F9008951CB889B99F7090BDD0
:10049000862F83708BB9687F6AB9406840BD089524
:1004A0005D9BFECF8CB90895CF93DF93EC0121962D
:1004B000FC018491882339F00E945002FE0184914E
:1004C00021968111F9CFDF91CF910895CF93C82F55
:1004D000E82FE295EF70F0E0EC5AFF4F84910E9414
:1004E0005002CF70EC2FF0E0EC5AFF4F84910E9445
:1004F0005002CF910895E7E0F2E08FE192E011928F
:10050000E817F907E1F7109260008DE691E00E948C
:100510005402089590ED980F9A3060F09FEB980F79
:10052000963010F4875308959FE9980F963020F481
:1005300087550895892F08958FE008958DE00E94D2
:1005400050028AE00E9450020895EF92FF921F939A
:10055000CF93DF9380910702813699F50F2EF7E054
:10056000EF2EF2E0FF2EF02DF70181810E948A022A
:10057000C82FF70182810E948A02D0E0DC2FCC27AD
:10058000D295D07FD82BF70183810E948A02182F41
:10059000F70184810E948A02C82BF0E11F9FC001ED
:1005A0001124C82BD92B81E60E9450028D2F0E9466
:1005B00066028C2F0E9466028C2F9D2F0E94F200F3
:1005C0005AC08436C9F4C7E0D2E089810E948A0209
:1005D000182F8A810E948A0290E1199F90011124AC
:1005E000C82FC22B84E60E9450028C2F0E94660204
:1005F0008C2F0E94FE003FC0833641F40E945002BF
:100600000E94D80180E00E94E80135C08936C9F413
:10061000C7E0D2E089810E948A02182F8A810E9455
:100620008A02E0E11E9F90011124C82FC22B89E6A7
:100630000E9450028C2F0E9466028C2F0E944D0156
:100640001AC08236C1F4C7E0D2E089810E948A02D2
:10065000182F8A810E948A02F0E11F9F90011124C5
:10066000C82FC22B82E60E9450028C2F0E94660285
:100670008C2F0E947B010E949E020E947B02DF91D0
:10068000CF911F91FF90EF900895B89A789446E02B
:1006900068E989E190E00E94440286E491E00E94CA
:1006A00054028AE091E00E9454028DEE90E00E9494
:1006B0005402C9E188EC90E00E94E4008EE20E94BE
:1006C0005002C150B9F789ED90E00E9454020E9497
:1006D000170183EC90E00E94540280E00E94E80140
:1006E0000E94D8018CE790E00E945402D0E010E014
:1006F0000FC041E06D2F8C2F0E9486010E940202E4
:10070000CF5FC634B1F70E949E02DF5FD03311F095
:10071000C12FEFCF84E690E00E945402C0E08C2FFE
:100720000E944D018C2F0E947B0184E690E00E9484
:10073000E400CF5FCF3F99F78FEF0E944D018FEF1D
:100740000E947B0184E690E00E94E400C1E082E325
:1007500090E00E94E40088B38C2788BB8091600001
:100760008E3FA9F70E94A502F2CF1F920F920FB6FB
:100770000F9211242F933F934F935F936F937F9327
:100780008F939F93AF93BF93EF93FF938CB18D3073
:1007900021F48EEF8093600011C08B3119F40E9418
:1007A0007B020CC090916000983140F4E92FF0E09A
:1007B000E95FFD4F80839F5F90936000FF91EF9111
:1007C000BF91AF919F918F917F916F915F914F9169
:1007D0003F912F910F900FBE0F901F901895F89496
:0207E000FFCF49
:00000001FF
